{
  "_format": "hh-sol-artifact-1",
  "contractName": "ERC20",
  "sourceName": "contracts/external/ERC20.sol",
  "abi": [
    {
      "inputs": [
        {
          "internalType": "string",
          "name": "name_",
          "type": "string"
        },
        {
          "internalType": "string",
          "name": "symbol_",
          "type": "string"
        }
      ],
      "stateMutability": "nonpayable",
      "type": "constructor"
    },
    {
      "anonymous": false,
      "inputs": [
        {
          "indexed": true,
          "internalType": "address",
          "name": "owner",
          "type": "address"
        },
        {
          "indexed": true,
          "internalType": "address",
          "name": "spender",
          "type": "address"
        },
        {
          "indexed": false,
          "internalType": "uint256",
          "name": "value",
          "type": "uint256"
        }
      ],
      "name": "Approval",
      "type": "event"
    },
    {
      "anonymous": false,
      "inputs": [
        {
          "indexed": true,
          "internalType": "address",
          "name": "from",
          "type": "address"
        },
        {
          "indexed": true,
          "internalType": "address",
          "name": "to",
          "type": "address"
        },
        {
          "indexed": false,
          "internalType": "uint256",
          "name": "value",
          "type": "uint256"
        }
      ],
      "name": "Transfer",
      "type": "event"
    },
    {
      "inputs": [
        {
          "internalType": "address",
          "name": "owner",
          "type": "address"
        },
        {
          "internalType": "address",
          "name": "spender",
          "type": "address"
        }
      ],
      "name": "allowance",
      "outputs": [
        {
          "internalType": "uint256",
          "name": "",
          "type": "uint256"
        }
      ],
      "stateMutability": "view",
      "type": "function"
    },
    {
      "inputs": [
        {
          "internalType": "address",
          "name": "spender",
          "type": "address"
        },
        {
          "internalType": "uint256",
          "name": "amount",
          "type": "uint256"
        }
      ],
      "name": "approve",
      "outputs": [
        {
          "internalType": "bool",
          "name": "",
          "type": "bool"
        }
      ],
      "stateMutability": "nonpayable",
      "type": "function"
    },
    {
      "inputs": [
        {
          "internalType": "address",
          "name": "account",
          "type": "address"
        }
      ],
      "name": "balanceOf",
      "outputs": [
        {
          "internalType": "uint256",
          "name": "",
          "type": "uint256"
        }
      ],
      "stateMutability": "view",
      "type": "function"
    },
    {
      "inputs": [],
      "name": "decimals",
      "outputs": [
        {
          "internalType": "uint8",
          "name": "",
          "type": "uint8"
        }
      ],
      "stateMutability": "view",
      "type": "function"
    },
    {
      "inputs": [
        {
          "internalType": "address",
          "name": "spender",
          "type": "address"
        },
        {
          "internalType": "uint256",
          "name": "subtractedValue",
          "type": "uint256"
        }
      ],
      "name": "decreaseAllowance",
      "outputs": [
        {
          "internalType": "bool",
          "name": "",
          "type": "bool"
        }
      ],
      "stateMutability": "nonpayable",
      "type": "function"
    },
    {
      "inputs": [
        {
          "internalType": "address",
          "name": "spender",
          "type": "address"
        },
        {
          "internalType": "uint256",
          "name": "addedValue",
          "type": "uint256"
        }
      ],
      "name": "increaseAllowance",
      "outputs": [
        {
          "internalType": "bool",
          "name": "",
          "type": "bool"
        }
      ],
      "stateMutability": "nonpayable",
      "type": "function"
    },
    {
      "inputs": [
        {
          "internalType": "string",
          "name": "name_",
          "type": "string"
        },
        {
          "internalType": "string",
          "name": "symbol_",
          "type": "string"
        }
      ],
      "name": "init",
      "outputs": [],
      "stateMutability": "nonpayable",
      "type": "function"
    },
    {
      "inputs": [],
      "name": "name",
      "outputs": [
        {
          "internalType": "string",
          "name": "",
          "type": "string"
        }
      ],
      "stateMutability": "view",
      "type": "function"
    },
    {
      "inputs": [],
      "name": "symbol",
      "outputs": [
        {
          "internalType": "string",
          "name": "",
          "type": "string"
        }
      ],
      "stateMutability": "view",
      "type": "function"
    },
    {
      "inputs": [],
      "name": "totalSupply",
      "outputs": [
        {
          "internalType": "uint256",
          "name": "",
          "type": "uint256"
        }
      ],
      "stateMutability": "view",
      "type": "function"
    },
    {
      "inputs": [
        {
          "internalType": "address",
          "name": "recipient",
          "type": "address"
        },
        {
          "internalType": "uint256",
          "name": "amount",
          "type": "uint256"
        }
      ],
      "name": "transfer",
      "outputs": [
        {
          "internalType": "bool",
          "name": "",
          "type": "bool"
        }
      ],
      "stateMutability": "nonpayable",
      "type": "function"
    },
    {
      "inputs": [
        {
          "internalType": "address",
          "name": "sender",
          "type": "address"
        },
        {
          "internalType": "address",
          "name": "recipient",
          "type": "address"
        },
        {
          "internalType": "uint256",
          "name": "amount",
          "type": "uint256"
        }
      ],
      "name": "transferFrom",
      "outputs": [
        {
          "internalType": "bool",
          "name": "",
          "type": "bool"
        }
      ],
      "stateMutability": "nonpayable",
      "type": "function"
    }
  ],
  "bytecode": "0x60806040523480156200001157600080fd5b50604051620019e6380380620019e6833981810160405281019062000037919062000193565b81600390805190602001906200004f92919062000071565b5080600490805190602001906200006892919062000071565b50505062000376565b8280546200007f906200029b565b90600052602060002090601f016020900481019282620000a35760008555620000ef565b82601f10620000be57805160ff1916838001178555620000ef565b82800160010185558215620000ef579182015b82811115620000ee578251825591602001919060010190620000d1565b5b509050620000fe919062000102565b5090565b5b808211156200011d57600081600090555060010162000103565b5090565b60006200013862000132846200022f565b62000206565b9050828152602081018484840111156200015157600080fd5b6200015e84828562000265565b509392505050565b600082601f8301126200017857600080fd5b81516200018a84826020860162000121565b91505092915050565b60008060408385031215620001a757600080fd5b600083015167ffffffffffffffff811115620001c257600080fd5b620001d08582860162000166565b925050602083015167ffffffffffffffff811115620001ee57600080fd5b620001fc8582860162000166565b9150509250929050565b60006200021262000225565b9050620002208282620002d1565b919050565b6000604051905090565b600067ffffffffffffffff8211156200024d576200024c62000336565b5b620002588262000365565b9050602081019050919050565b60005b838110156200028557808201518184015260208101905062000268565b8381111562000295576000848401525b50505050565b60006002820490506001821680620002b457607f821691505b60208210811415620002cb57620002ca62000307565b5b50919050565b620002dc8262000365565b810181811067ffffffffffffffff82111715620002fe57620002fd62000336565b5b80604052505050565b7f4e487b7100000000000000000000000000000000000000000000000000000000600052602260045260246000fd5b7f4e487b7100000000000000000000000000000000000000000000000000000000600052604160045260246000fd5b6000601f19601f8301169050919050565b61166080620003866000396000f3fe608060405234801561001057600080fd5b50600436106100d45760003560e01c80637029144c11610081578063a457c2d71161005b578063a457c2d71461022d578063a9059cbb1461025d578063dd62ed3e1461028d576100d4565b80637029144c146101c357806370a08231146101df57806395d89b411461020f576100d4565b806323b872dd116100b257806323b872dd14610145578063313ce567146101755780633950935114610193576100d4565b806306fdde03146100d9578063095ea7b3146100f757806318160ddd14610127575b600080fd5b6100e16102bd565b6040516100ee9190611030565b60405180910390f35b610111600480360381019061010c9190610e12565b61034f565b60405161011e9190611015565b60405180910390f35b61012f61036d565b60405161013c9190611132565b60405180910390f35b61015f600480360381019061015a9190610dc3565b610377565b60405161016c9190611015565b60405180910390f35b61017d610478565b60405161018a919061114d565b60405180910390f35b6101ad60048036038101906101a89190610e12565b610481565b6040516101ba9190611015565b60405180910390f35b6101dd60048036038101906101d89190610e4e565b61052d565b005b6101f960048036038101906101f49190610d5e565b61055f565b6040516102069190611132565b60405180910390f35b6102176105a7565b6040516102249190611030565b60405180910390f35b61024760048036038101906102429190610e12565b610639565b6040516102549190611015565b60405180910390f35b61027760048036038101906102729190610e12565b61072d565b6040516102849190611015565b60405180910390f35b6102a760048036038101906102a29190610d87565b61074b565b6040516102b49190611132565b60405180910390f35b6060600380546102cc906112fb565b80601f01602080910402602001604051908101604052809291908181526020018280546102f8906112fb565b80156103455780601f1061031a57610100808354040283529160200191610345565b820191906000526020600020905b81548152906001019060200180831161032857829003601f168201915b5050505050905090565b600061036361035c6107d2565b84846107da565b6001905092915050565b6000600254905090565b60006103848484846109a5565b6000600160008673ffffffffffffffffffffffffffffffffffffffff1673ffffffffffffffffffffffffffffffffffffffff16815260200190815260200160002060006103cf6107d2565b73ffffffffffffffffffffffffffffffffffffffff1673ffffffffffffffffffffffffffffffffffffffff1681526020019081526020016000205490508281101561044f576040517f08c379a0000000000000000000000000000000000000000000000000000000008152600401610446906110b2565b60405180910390fd5b61046c8561045b6107d2565b85846104679190611230565b6107da565b60019150509392505050565b60006012905090565b600061052361048e6107d2565b84846001600061049c6107d2565b73ffffffffffffffffffffffffffffffffffffffff1673ffffffffffffffffffffffffffffffffffffffff16815260200190815260200160002060008873ffffffffffffffffffffffffffffffffffffffff1673ffffffffffffffffffffffffffffffffffffffff1681526020019081526020016000205461051e91906111da565b6107da565b6001905092915050565b8160039080519060200190610543929190610c29565b50806004908051906020019061055a929190610c29565b505050565b60008060008373ffffffffffffffffffffffffffffffffffffffff1673ffffffffffffffffffffffffffffffffffffffff168152602001908152602001600020549050919050565b6060600480546105b6906112fb565b80601f01602080910402602001604051908101604052809291908181526020018280546105e2906112fb565b801561062f5780601f106106045761010080835404028352916020019161062f565b820191906000526020600020905b81548152906001019060200180831161061257829003601f168201915b5050505050905090565b600080600160006106486107d2565b73ffffffffffffffffffffffffffffffffffffffff1673ffffffffffffffffffffffffffffffffffffffff16815260200190815260200160002060008573ffffffffffffffffffffffffffffffffffffffff1673ffffffffffffffffffffffffffffffffffffffff16815260200190815260200160002054905082811015610705576040517f08c379a00000000000000000000000000000000000000000000000000000000081526004016106fc90611112565b60405180910390fd5b6107226107106107d2565b85858461071d9190611230565b6107da565b600191505092915050565b600061074161073a6107d2565b84846109a5565b6001905092915050565b6000600160008473ffffffffffffffffffffffffffffffffffffffff1673ffffffffffffffffffffffffffffffffffffffff16815260200190815260200160002060008373ffffffffffffffffffffffffffffffffffffffff1673ffffffffffffffffffffffffffffffffffffffff16815260200190815260200160002054905092915050565b600033905090565b600073ffffffffffffffffffffffffffffffffffffffff168373ffffffffffffffffffffffffffffffffffffffff16141561084a576040517f08c379a0000000000000000000000000000000000000000000000000000000008152600401610841906110f2565b60405180910390fd5b600073ffffffffffffffffffffffffffffffffffffffff168273ffffffffffffffffffffffffffffffffffffffff1614156108ba576040517f08c379a00000000000000000000000000000000000000000000000000000000081526004016108b190611072565b60405180910390fd5b80600160008573ffffffffffffffffffffffffffffffffffffffff1673ffffffffffffffffffffffffffffffffffffffff16815260200190815260200160002060008473ffffffffffffffffffffffffffffffffffffffff1673ffffffffffffffffffffffffffffffffffffffff168152602001908152602001600020819055508173ffffffffffffffffffffffffffffffffffffffff168373ffffffffffffffffffffffffffffffffffffffff167f8c5be1e5ebec7d5bd14f71427d1e84f3dd0314c0f7b2291e5b200ac8c7c3b925836040516109989190611132565b60405180910390a3505050565b600073ffffffffffffffffffffffffffffffffffffffff168373ffffffffffffffffffffffffffffffffffffffff161415610a15576040517f08c379a0000000000000000000000000000000000000000000000000000000008152600401610a0c906110d2565b60405180910390fd5b600073ffffffffffffffffffffffffffffffffffffffff168273ffffffffffffffffffffffffffffffffffffffff161415610a85576040517f08c379a0000000000000000000000000000000000000000000000000000000008152600401610a7c90611052565b60405180910390fd5b610a90838383610c24565b60008060008573ffffffffffffffffffffffffffffffffffffffff1673ffffffffffffffffffffffffffffffffffffffff16815260200190815260200160002054905081811015610b16576040517f08c379a0000000000000000000000000000000000000000000000000000000008152600401610b0d90611092565b60405180910390fd5b8181610b229190611230565b6000808673ffffffffffffffffffffffffffffffffffffffff1673ffffffffffffffffffffffffffffffffffffffff16815260200190815260200160002081905550816000808573ffffffffffffffffffffffffffffffffffffffff1673ffffffffffffffffffffffffffffffffffffffff1681526020019081526020016000206000828254610bb291906111da565b925050819055508273ffffffffffffffffffffffffffffffffffffffff168473ffffffffffffffffffffffffffffffffffffffff167fddf252ad1be2c89b69c2b068fc378daa952ba7f163c4a11628f55a4df523b3ef84604051610c169190611132565b60405180910390a350505050565b505050565b828054610c35906112fb565b90600052602060002090601f016020900481019282610c575760008555610c9e565b82601f10610c7057805160ff1916838001178555610c9e565b82800160010185558215610c9e579182015b82811115610c9d578251825591602001919060010190610c82565b5b509050610cab9190610caf565b5090565b5b80821115610cc8576000816000905550600101610cb0565b5090565b6000610cdf610cda8461118d565b611168565b905082815260208101848484011115610cf757600080fd5b610d028482856112b9565b509392505050565b600081359050610d1981611625565b92915050565b600082601f830112610d3057600080fd5b8135610d40848260208601610ccc565b91505092915050565b600081359050610d588161163c565b92915050565b600060208284031215610d7057600080fd5b6000610d7e84828501610d0a565b91505092915050565b60008060408385031215610d9a57600080fd5b6000610da885828601610d0a565b9250506020610db985828601610d0a565b9150509250929050565b600080600060608486031215610dd857600080fd5b6000610de686828701610d0a565b9350506020610df786828701610d0a565b9250506040610e0886828701610d49565b9150509250925092565b60008060408385031215610e2557600080fd5b6000610e3385828601610d0a565b9250506020610e4485828601610d49565b9150509250929050565b60008060408385031215610e6157600080fd5b600083013567ffffffffffffffff811115610e7b57600080fd5b610e8785828601610d1f565b925050602083013567ffffffffffffffff811115610ea457600080fd5b610eb085828601610d1f565b9150509250929050565b610ec381611276565b82525050565b6000610ed4826111be565b610ede81856111c9565b9350610eee8185602086016112c8565b610ef7816113eb565b840191505092915050565b6000610f0f6023836111c9565b9150610f1a826113fc565b604082019050919050565b6000610f326022836111c9565b9150610f3d8261144b565b604082019050919050565b6000610f556026836111c9565b9150610f608261149a565b604082019050919050565b6000610f786028836111c9565b9150610f83826114e9565b604082019050919050565b6000610f9b6025836111c9565b9150610fa682611538565b604082019050919050565b6000610fbe6024836111c9565b9150610fc982611587565b604082019050919050565b6000610fe16025836111c9565b9150610fec826115d6565b604082019050919050565b611000816112a2565b82525050565b61100f816112ac565b82525050565b600060208201905061102a6000830184610eba565b92915050565b6000602082019050818103600083015261104a8184610ec9565b905092915050565b6000602082019050818103600083015261106b81610f02565b9050919050565b6000602082019050818103600083015261108b81610f25565b9050919050565b600060208201905081810360008301526110ab81610f48565b9050919050565b600060208201905081810360008301526110cb81610f6b565b9050919050565b600060208201905081810360008301526110eb81610f8e565b9050919050565b6000602082019050818103600083015261110b81610fb1565b9050919050565b6000602082019050818103600083015261112b81610fd4565b9050919050565b60006020820190506111476000830184610ff7565b92915050565b60006020820190506111626000830184611006565b92915050565b6000611172611183565b905061117e828261132d565b919050565b6000604051905090565b600067ffffffffffffffff8211156111a8576111a76113bc565b5b6111b1826113eb565b9050602081019050919050565b600081519050919050565b600082825260208201905092915050565b60006111e5826112a2565b91506111f0836112a2565b9250827fffffffffffffffffffffffffffffffffffffffffffffffffffffffffffffffff038211156112255761122461135e565b5b828201905092915050565b600061123b826112a2565b9150611246836112a2565b9250828210156112595761125861135e565b5b828203905092915050565b600061126f82611282565b9050919050565b60008115159050919050565b600073ffffffffffffffffffffffffffffffffffffffff82169050919050565b6000819050919050565b600060ff82169050919050565b82818337600083830152505050565b60005b838110156112e65780820151818401526020810190506112cb565b838111156112f5576000848401525b50505050565b6000600282049050600182168061131357607f821691505b602082108114156113275761132661138d565b5b50919050565b611336826113eb565b810181811067ffffffffffffffff82111715611355576113546113bc565b5b80604052505050565b7f4e487b7100000000000000000000000000000000000000000000000000000000600052601160045260246000fd5b7f4e487b7100000000000000000000000000000000000000000000000000000000600052602260045260246000fd5b7f4e487b7100000000000000000000000000000000000000000000000000000000600052604160045260246000fd5b6000601f19601f8301169050919050565b7f45524332303a207472616e7366657220746f20746865207a65726f206164647260008201527f6573730000000000000000000000000000000000000000000000000000000000602082015250565b7f45524332303a20617070726f766520746f20746865207a65726f20616464726560008201527f7373000000000000000000000000000000000000000000000000000000000000602082015250565b7f45524332303a207472616e7366657220616d6f756e742065786365656473206260008201527f616c616e63650000000000000000000000000000000000000000000000000000602082015250565b7f45524332303a207472616e7366657220616d6f756e742065786365656473206160008201527f6c6c6f77616e6365000000000000000000000000000000000000000000000000602082015250565b7f45524332303a207472616e736665722066726f6d20746865207a65726f20616460008201527f6472657373000000000000000000000000000000000000000000000000000000602082015250565b7f45524332303a20617070726f76652066726f6d20746865207a65726f2061646460008201527f7265737300000000000000000000000000000000000000000000000000000000602082015250565b7f45524332303a2064656372656173656420616c6c6f77616e63652062656c6f7760008201527f207a65726f000000000000000000000000000000000000000000000000000000602082015250565b61162e81611264565b811461163957600080fd5b50565b611645816112a2565b811461165057600080fd5b5056fea164736f6c6343000803000a",
  "linkReferences": {},
  "deployedLinkReferences": {}
}